{
  "_format": "hh-sol-artifact-1",
  "contractName": "CharityContract",
  "sourceName": "contracts/CharityContract.sol",
  "abi": [
    {
      "inputs": [
        {
          "internalType": "address",
          "name": "initialOwner",
          "type": "address"
        }
      ],
      "stateMutability": "nonpayable",
      "type": "constructor"
    },
    {
      "inputs": [
        {
          "internalType": "address",
          "name": "sender",
          "type": "address"
        },
        {
          "internalType": "uint256",
          "name": "tokenId",
          "type": "uint256"
        },
        {
          "internalType": "address",
          "name": "owner",
          "type": "address"
        }
      ],
      "name": "ERC721IncorrectOwner",
      "type": "error"
    },
    {
      "inputs": [
        {
          "internalType": "address",
          "name": "operator",
          "type": "address"
        },
        {
          "internalType": "uint256",
          "name": "tokenId",
          "type": "uint256"
        }
      ],
      "name": "ERC721InsufficientApproval",
      "type": "error"
    },
    {
      "inputs": [
        {
          "internalType": "address",
          "name": "approver",
          "type": "address"
        }
      ],
      "name": "ERC721InvalidApprover",
      "type": "error"
    },
    {
      "inputs": [
        {
          "internalType": "address",
          "name": "operator",
          "type": "address"
        }
      ],
      "name": "ERC721InvalidOperator",
      "type": "error"
    },
    {
      "inputs": [
        {
          "internalType": "address",
          "name": "owner",
          "type": "address"
        }
      ],
      "name": "ERC721InvalidOwner",
      "type": "error"
    },
    {
      "inputs": [
        {
          "internalType": "address",
          "name": "receiver",
          "type": "address"
        }
      ],
      "name": "ERC721InvalidReceiver",
      "type": "error"
    },
    {
      "inputs": [
        {
          "internalType": "address",
          "name": "sender",
          "type": "address"
        }
      ],
      "name": "ERC721InvalidSender",
      "type": "error"
    },
    {
      "inputs": [
        {
          "internalType": "uint256",
          "name": "tokenId",
          "type": "uint256"
        }
      ],
      "name": "ERC721NonexistentToken",
      "type": "error"
    },
    {
      "inputs": [
        {
          "internalType": "address",
          "name": "owner",
          "type": "address"
        }
      ],
      "name": "OwnableInvalidOwner",
      "type": "error"
    },
    {
      "inputs": [
        {
          "internalType": "address",
          "name": "account",
          "type": "address"
        }
      ],
      "name": "OwnableUnauthorizedAccount",
      "type": "error"
    },
    {
      "anonymous": false,
      "inputs": [
        {
          "indexed": true,
          "internalType": "address",
          "name": "owner",
          "type": "address"
        },
        {
          "indexed": true,
          "internalType": "address",
          "name": "approved",
          "type": "address"
        },
        {
          "indexed": true,
          "internalType": "uint256",
          "name": "tokenId",
          "type": "uint256"
        }
      ],
      "name": "Approval",
      "type": "event"
    },
    {
      "anonymous": false,
      "inputs": [
        {
          "indexed": true,
          "internalType": "address",
          "name": "owner",
          "type": "address"
        },
        {
          "indexed": true,
          "internalType": "address",
          "name": "operator",
          "type": "address"
        },
        {
          "indexed": false,
          "internalType": "bool",
          "name": "approved",
          "type": "bool"
        }
      ],
      "name": "ApprovalForAll",
      "type": "event"
    },
    {
      "anonymous": false,
      "inputs": [
        {
          "indexed": true,
          "internalType": "address",
          "name": "previousOwner",
          "type": "address"
        },
        {
          "indexed": true,
          "internalType": "address",
          "name": "newOwner",
          "type": "address"
        }
      ],
      "name": "OwnershipTransferred",
      "type": "event"
    },
    {
      "anonymous": false,
      "inputs": [
        {
          "indexed": true,
          "internalType": "uint256",
          "name": "tokenId",
          "type": "uint256"
        },
        {
          "indexed": false,
          "internalType": "uint256",
          "name": "amount",
          "type": "uint256"
        },
        {
          "indexed": true,
          "internalType": "address",
          "name": "receiver",
          "type": "address"
        },
        {
          "indexed": false,
          "internalType": "string",
          "name": "description",
          "type": "string"
        },
        {
          "indexed": false,
          "internalType": "string",
          "name": "imageBase64",
          "type": "string"
        }
      ],
      "name": "TransactionExecuted",
      "type": "event"
    },
    {
      "anonymous": false,
      "inputs": [
        {
          "indexed": true,
          "internalType": "address",
          "name": "from",
          "type": "address"
        },
        {
          "indexed": true,
          "internalType": "address",
          "name": "to",
          "type": "address"
        },
        {
          "indexed": true,
          "internalType": "uint256",
          "name": "tokenId",
          "type": "uint256"
        }
      ],
      "name": "Transfer",
      "type": "event"
    },
    {
      "stateMutability": "payable",
      "type": "fallback"
    },
    {
      "inputs": [
        {
          "internalType": "address",
          "name": "to",
          "type": "address"
        },
        {
          "internalType": "uint256",
          "name": "tokenId",
          "type": "uint256"
        }
      ],
      "name": "approve",
      "outputs": [],
      "stateMutability": "nonpayable",
      "type": "function"
    },
    {
      "inputs": [
        {
          "internalType": "address",
          "name": "owner",
          "type": "address"
        }
      ],
      "name": "balanceOf",
      "outputs": [
        {
          "internalType": "uint256",
          "name": "",
          "type": "uint256"
        }
      ],
      "stateMutability": "view",
      "type": "function"
    },
    {
      "inputs": [
        {
          "internalType": "address",
          "name": "receiver",
          "type": "address"
        },
        {
          "internalType": "string",
          "name": "description",
          "type": "string"
        },
        {
          "internalType": "string",
          "name": "imageBase64",
          "type": "string"
        }
      ],
      "name": "executeTransaction",
      "outputs": [],
      "stateMutability": "payable",
      "type": "function"
    },
    {
      "inputs": [
        {
          "internalType": "uint256",
          "name": "tokenId",
          "type": "uint256"
        }
      ],
      "name": "getApproved",
      "outputs": [
        {
          "internalType": "address",
          "name": "",
          "type": "address"
        }
      ],
      "stateMutability": "view",
      "type": "function"
    },
    {
      "inputs": [
        {
          "internalType": "address",
          "name": "owner",
          "type": "address"
        },
        {
          "internalType": "address",
          "name": "operator",
          "type": "address"
        }
      ],
      "name": "isApprovedForAll",
      "outputs": [
        {
          "internalType": "bool",
          "name": "",
          "type": "bool"
        }
      ],
      "stateMutability": "view",
      "type": "function"
    },
    {
      "inputs": [],
      "name": "name",
      "outputs": [
        {
          "internalType": "string",
          "name": "",
          "type": "string"
        }
      ],
      "stateMutability": "view",
      "type": "function"
    },
    {
      "inputs": [],
      "name": "owner",
      "outputs": [
        {
          "internalType": "address",
          "name": "",
          "type": "address"
        }
      ],
      "stateMutability": "view",
      "type": "function"
    },
    {
      "inputs": [
        {
          "internalType": "uint256",
          "name": "tokenId",
          "type": "uint256"
        }
      ],
      "name": "ownerOf",
      "outputs": [
        {
          "internalType": "address",
          "name": "",
          "type": "address"
        }
      ],
      "stateMutability": "view",
      "type": "function"
    },
    {
      "inputs": [],
      "name": "renounceOwnership",
      "outputs": [],
      "stateMutability": "nonpayable",
      "type": "function"
    },
    {
      "inputs": [
        {
          "internalType": "address",
          "name": "from",
          "type": "address"
        },
        {
          "internalType": "address",
          "name": "to",
          "type": "address"
        },
        {
          "internalType": "uint256",
          "name": "tokenId",
          "type": "uint256"
        }
      ],
      "name": "safeTransferFrom",
      "outputs": [],
      "stateMutability": "nonpayable",
      "type": "function"
    },
    {
      "inputs": [
        {
          "internalType": "address",
          "name": "from",
          "type": "address"
        },
        {
          "internalType": "address",
          "name": "to",
          "type": "address"
        },
        {
          "internalType": "uint256",
          "name": "tokenId",
          "type": "uint256"
        },
        {
          "internalType": "bytes",
          "name": "data",
          "type": "bytes"
        }
      ],
      "name": "safeTransferFrom",
      "outputs": [],
      "stateMutability": "nonpayable",
      "type": "function"
    },
    {
      "inputs": [
        {
          "internalType": "address",
          "name": "operator",
          "type": "address"
        },
        {
          "internalType": "bool",
          "name": "approved",
          "type": "bool"
        }
      ],
      "name": "setApprovalForAll",
      "outputs": [],
      "stateMutability": "nonpayable",
      "type": "function"
    },
    {
      "inputs": [
        {
          "internalType": "bytes4",
          "name": "interfaceId",
          "type": "bytes4"
        }
      ],
      "name": "supportsInterface",
      "outputs": [
        {
          "internalType": "bool",
          "name": "",
          "type": "bool"
        }
      ],
      "stateMutability": "view",
      "type": "function"
    },
    {
      "inputs": [],
      "name": "symbol",
      "outputs": [
        {
          "internalType": "string",
          "name": "",
          "type": "string"
        }
      ],
      "stateMutability": "view",
      "type": "function"
    },
    {
      "inputs": [],
      "name": "tokenCounter",
      "outputs": [
        {
          "internalType": "uint256",
          "name": "",
          "type": "uint256"
        }
      ],
      "stateMutability": "view",
      "type": "function"
    },
    {
      "inputs": [
        {
          "internalType": "uint256",
          "name": "tokenId",
          "type": "uint256"
        }
      ],
      "name": "tokenURI",
      "outputs": [
        {
          "internalType": "string",
          "name": "",
          "type": "string"
        }
      ],
      "stateMutability": "view",
      "type": "function"
    },
    {
      "inputs": [
        {
          "internalType": "address",
          "name": "from",
          "type": "address"
        },
        {
          "internalType": "address",
          "name": "to",
          "type": "address"
        },
        {
          "internalType": "uint256",
          "name": "tokenId",
          "type": "uint256"
        }
      ],
      "name": "transferFrom",
      "outputs": [],
      "stateMutability": "nonpayable",
      "type": "function"
    },
    {
      "inputs": [
        {
          "internalType": "address",
          "name": "newOwner",
          "type": "address"
        }
      ],
      "name": "transferOwnership",
      "outputs": [],
      "stateMutability": "nonpayable",
      "type": "function"
    },
    {
      "stateMutability": "payable",
      "type": "receive"
    }
  ],
  "bytecode": "0x60806040523480156200001157600080fd5b5060405162002d3438038062002d34833981810160405281019062000037919062000290565b806040518060400160405280600d81526020017f426974654261636b546f6b656e000000000000000000000000000000000000008152506040518060400160405280600381526020017f42544200000000000000000000000000000000000000000000000000000000008152508160009081620000b591906200053c565b508060019081620000c791906200053c565b505050600073ffffffffffffffffffffffffffffffffffffffff168173ffffffffffffffffffffffffffffffffffffffff16036200013f5760006040517f1e4fbdf700000000000000000000000000000000000000000000000000000000815260040162000136919062000634565b60405180910390fd5b62000150816200016060201b60201c565b5060006007819055505062000651565b6000600660009054906101000a900473ffffffffffffffffffffffffffffffffffffffff16905081600660006101000a81548173ffffffffffffffffffffffffffffffffffffffff021916908373ffffffffffffffffffffffffffffffffffffffff1602179055508173ffffffffffffffffffffffffffffffffffffffff168173ffffffffffffffffffffffffffffffffffffffff167f8be0079c531659141344cd1fd0a4f28419497f9722a3daafe3b4186f6b6457e060405160405180910390a35050565b600080fd5b600073ffffffffffffffffffffffffffffffffffffffff82169050919050565b600062000258826200022b565b9050919050565b6200026a816200024b565b81146200027657600080fd5b50565b6000815190506200028a816200025f565b92915050565b600060208284031215620002a957620002a862000226565b5b6000620002b98482850162000279565b91505092915050565b600081519050919050565b7f4e487b7100000000000000000000000000000000000000000000000000000000600052604160045260246000fd5b7f4e487b7100000000000000000000000000000000000000000000000000000000600052602260045260246000fd5b600060028204905060018216806200034457607f821691505b6020821081036200035a5762000359620002fc565b5b50919050565b60008190508160005260206000209050919050565b60006020601f8301049050919050565b600082821b905092915050565b600060088302620003c47fffffffffffffffffffffffffffffffffffffffffffffffffffffffffffffffff8262000385565b620003d0868362000385565b95508019841693508086168417925050509392505050565b6000819050919050565b6000819050919050565b60006200041d620004176200041184620003e8565b620003f2565b620003e8565b9050919050565b6000819050919050565b6200043983620003fc565b62000451620004488262000424565b84845462000392565b825550505050565b600090565b6200046862000459565b620004758184846200042e565b505050565b5b818110156200049d57620004916000826200045e565b6001810190506200047b565b5050565b601f821115620004ec57620004b68162000360565b620004c18462000375565b81016020851015620004d1578190505b620004e9620004e08562000375565b8301826200047a565b50505b505050565b600082821c905092915050565b60006200051160001984600802620004f1565b1980831691505092915050565b60006200052c8383620004fe565b9150826002028217905092915050565b6200054782620002c2565b67ffffffffffffffff811115620005635762000562620002cd565b5b6200056f82546200032b565b6200057c828285620004a1565b600060209050601f831160018114620005b457600084156200059f578287015190505b620005ab85826200051e565b8655506200061b565b601f198416620005c48662000360565b60005b82811015620005ee57848901518255600182019150602085019450602081019050620005c7565b868310156200060e57848901516200060a601f891682620004fe565b8355505b6001600288020188555050505b505050505050565b6200062e816200024b565b82525050565b60006020820190506200064b600083018462000623565b92915050565b6126d380620006616000396000f3fe60806040526004361061010d5760003560e01c80638da5cb5b11610095578063b88d4fde11610064578063b88d4fde14610362578063c87b56dd1461038b578063d082e381146103c8578063e985e9c5146103f3578063f2fde38b1461043057610114565b80638da5cb5b146102c757806395d89b41146102f2578063a22cb4651461031d578063b23c444f1461034657610114565b806323b872dd116100dc57806323b872dd146101e457806342842e0e1461020d5780636352211e1461023657806370a0823114610273578063715018a6146102b057610114565b806301ffc9a71461011657806306fdde0314610153578063081812fc1461017e578063095ea7b3146101bb57610114565b3661011457005b005b34801561012257600080fd5b5061013d60048036038101906101389190611ba5565b610459565b60405161014a9190611bed565b60405180910390f35b34801561015f57600080fd5b5061016861053b565b6040516101759190611c98565b60405180910390f35b34801561018a57600080fd5b506101a560048036038101906101a09190611cf0565b6105cd565b6040516101b29190611d5e565b60405180910390f35b3480156101c757600080fd5b506101e260048036038101906101dd9190611da5565b6105e9565b005b3480156101f057600080fd5b5061020b60048036038101906102069190611de5565b6105ff565b005b34801561021957600080fd5b50610234600480360381019061022f9190611de5565b610701565b005b34801561024257600080fd5b5061025d60048036038101906102589190611cf0565b610721565b60405161026a9190611d5e565b60405180910390f35b34801561027f57600080fd5b5061029a60048036038101906102959190611e38565b610733565b6040516102a79190611e74565b60405180910390f35b3480156102bc57600080fd5b506102c56107ed565b005b3480156102d357600080fd5b506102dc610801565b6040516102e99190611d5e565b60405180910390f35b3480156102fe57600080fd5b5061030761082b565b6040516103149190611c98565b60405180910390f35b34801561032957600080fd5b50610344600480360381019061033f9190611ebb565b6108bd565b005b610360600480360381019061035b9190612030565b6108d3565b005b34801561036e57600080fd5b506103896004803603810190610384919061215c565b610acb565b005b34801561039757600080fd5b506103b260048036038101906103ad9190611cf0565b610ae8565b6040516103bf9190611c98565b60405180910390f35b3480156103d457600080fd5b506103dd610b51565b6040516103ea9190611e74565b60405180910390f35b3480156103ff57600080fd5b5061041a600480360381019061041591906121df565b610b57565b6040516104279190611bed565b60405180910390f35b34801561043c57600080fd5b5061045760048036038101906104529190611e38565b610beb565b005b60007f80ac58cd000000000000000000000000000000000000000000000000000000007bffffffffffffffffffffffffffffffffffffffffffffffffffffffff1916827bffffffffffffffffffffffffffffffffffffffffffffffffffffffff1916148061052457507f5b5e139f000000000000000000000000000000000000000000000000000000007bffffffffffffffffffffffffffffffffffffffffffffffffffffffff1916827bffffffffffffffffffffffffffffffffffffffffffffffffffffffff1916145b80610534575061053382610c71565b5b9050919050565b60606000805461054a9061224e565b80601f01602080910402602001604051908101604052809291908181526020018280546105769061224e565b80156105c35780601f10610598576101008083540402835291602001916105c3565b820191906000526020600020905b8154815290600101906020018083116105a657829003601f168201915b5050505050905090565b60006105d882610cdb565b506105e282610d63565b9050919050565b6105fb82826105f6610da0565b610da8565b5050565b600073ffffffffffffffffffffffffffffffffffffffff168273ffffffffffffffffffffffffffffffffffffffff16036106715760006040517f64a0ae920000000000000000000000000000000000000000000000000000000081526004016106689190611d5e565b60405180910390fd5b60006106858383610680610da0565b610dba565b90508373ffffffffffffffffffffffffffffffffffffffff168173ffffffffffffffffffffffffffffffffffffffff16146106fb578382826040517f64283d7b0000000000000000000000000000000000000000000000000000000081526004016106f29392919061227f565b60405180910390fd5b50505050565b61071c83838360405180602001604052806000815250610acb565b505050565b600061072c82610cdb565b9050919050565b60008073ffffffffffffffffffffffffffffffffffffffff168273ffffffffffffffffffffffffffffffffffffffff16036107a65760006040517f89c62b6400000000000000000000000000000000000000000000000000000000815260040161079d9190611d5e565b60405180910390fd5b600360008373ffffffffffffffffffffffffffffffffffffffff1673ffffffffffffffffffffffffffffffffffffffff168152602001908152602001600020549050919050565b6107f5610fd4565b6107ff600061105b565b565b6000600660009054906101000a900473ffffffffffffffffffffffffffffffffffffffff16905090565b60606001805461083a9061224e565b80601f01602080910402602001604051908101604052809291908181526020018280546108669061224e565b80156108b35780601f10610888576101008083540402835291602001916108b3565b820191906000526020600020905b81548152906001019060200180831161089657829003601f168201915b5050505050905090565b6108cf6108c8610da0565b8383611121565b5050565b6108db610fd4565b600073ffffffffffffffffffffffffffffffffffffffff168373ffffffffffffffffffffffffffffffffffffffff160361094a576040517f08c379a000000000000000000000000000000000000000000000000000000000815260040161094190612328565b60405180910390fd5b610952610801565b73ffffffffffffffffffffffffffffffffffffffff168373ffffffffffffffffffffffffffffffffffffffff16036109bf576040517f08c379a00000000000000000000000000000000000000000000000000000000081526004016109b6906123ba565b60405180910390fd5b60003411610a02576040517f08c379a00000000000000000000000000000000000000000000000000000000081526004016109f990612426565b60405180910390fd5b8273ffffffffffffffffffffffffffffffffffffffff166108fc349081150290604051600060405180830381858888f19350505050158015610a48573d6000803e3d6000fd5b5060006007549050610a5a3382611290565b8373ffffffffffffffffffffffffffffffffffffffff16817fe559fb73cf427719cfd2827b28451cb95dcb2dab7cf5b4176507fa98a75db7e6348686604051610aa593929190612446565b60405180910390a360076000815480929190610ac0906124ba565b919050555050505050565b610ad68484846105ff565b610ae2848484846112ae565b50505050565b6060610af382610cdb565b506000610afe611465565b90506000815111610b1e5760405180602001604052806000815250610b49565b80610b288461147c565b604051602001610b3992919061253e565b6040516020818303038152906040525b915050919050565b60075481565b6000600560008473ffffffffffffffffffffffffffffffffffffffff1673ffffffffffffffffffffffffffffffffffffffff16815260200190815260200160002060008373ffffffffffffffffffffffffffffffffffffffff1673ffffffffffffffffffffffffffffffffffffffff16815260200190815260200160002060009054906101000a900460ff16905092915050565b610bf3610fd4565b600073ffffffffffffffffffffffffffffffffffffffff168173ffffffffffffffffffffffffffffffffffffffff1603610c655760006040517f1e4fbdf7000000000000000000000000000000000000000000000000000000008152600401610c5c9190611d5e565b60405180910390fd5b610c6e8161105b565b50565b60007f01ffc9a7000000000000000000000000000000000000000000000000000000007bffffffffffffffffffffffffffffffffffffffffffffffffffffffff1916827bffffffffffffffffffffffffffffffffffffffffffffffffffffffff1916149050919050565b600080610ce78361154a565b9050600073ffffffffffffffffffffffffffffffffffffffff168173ffffffffffffffffffffffffffffffffffffffff1603610d5a57826040517f7e273289000000000000000000000000000000000000000000000000000000008152600401610d519190611e74565b60405180910390fd5b80915050919050565b60006004600083815260200190815260200160002060009054906101000a900473ffffffffffffffffffffffffffffffffffffffff169050919050565b600033905090565b610db58383836001611587565b505050565b600080610dc68461154a565b9050600073ffffffffffffffffffffffffffffffffffffffff168373ffffffffffffffffffffffffffffffffffffffff1614610e0857610e0781848661174c565b5b600073ffffffffffffffffffffffffffffffffffffffff168173ffffffffffffffffffffffffffffffffffffffff1614610e9957610e4a600085600080611587565b6001600360008373ffffffffffffffffffffffffffffffffffffffff1673ffffffffffffffffffffffffffffffffffffffff168152602001908152602001600020600082825403925050819055505b600073ffffffffffffffffffffffffffffffffffffffff168573ffffffffffffffffffffffffffffffffffffffff1614610f1c576001600360008773ffffffffffffffffffffffffffffffffffffffff1673ffffffffffffffffffffffffffffffffffffffff168152602001908152602001600020600082825401925050819055505b846002600086815260200190815260200160002060006101000a81548173ffffffffffffffffffffffffffffffffffffffff021916908373ffffffffffffffffffffffffffffffffffffffff160217905550838573ffffffffffffffffffffffffffffffffffffffff168273ffffffffffffffffffffffffffffffffffffffff167fddf252ad1be2c89b69c2b068fc378daa952ba7f163c4a11628f55a4df523b3ef60405160405180910390a4809150509392505050565b610fdc610da0565b73ffffffffffffffffffffffffffffffffffffffff16610ffa610801565b73ffffffffffffffffffffffffffffffffffffffff16146110595761101d610da0565b6040517f118cdaa70000000000000000000000000000000000000000000000000000000081526004016110509190611d5e565b60405180910390fd5b565b6000600660009054906101000a900473ffffffffffffffffffffffffffffffffffffffff16905081600660006101000a81548173ffffffffffffffffffffffffffffffffffffffff021916908373ffffffffffffffffffffffffffffffffffffffff1602179055508173ffffffffffffffffffffffffffffffffffffffff168173ffffffffffffffffffffffffffffffffffffffff167f8be0079c531659141344cd1fd0a4f28419497f9722a3daafe3b4186f6b6457e060405160405180910390a35050565b600073ffffffffffffffffffffffffffffffffffffffff168273ffffffffffffffffffffffffffffffffffffffff160361119257816040517f5b08ba180000000000000000000000000000000000000000000000000000000081526004016111899190611d5e565b60405180910390fd5b80600560008573ffffffffffffffffffffffffffffffffffffffff1673ffffffffffffffffffffffffffffffffffffffff16815260200190815260200160002060008473ffffffffffffffffffffffffffffffffffffffff1673ffffffffffffffffffffffffffffffffffffffff16815260200190815260200160002060006101000a81548160ff0219169083151502179055508173ffffffffffffffffffffffffffffffffffffffff168373ffffffffffffffffffffffffffffffffffffffff167f17307eab39ab6107e8899845ad3d59bd9653f200f220920489ca2b5937696c31836040516112839190611bed565b60405180910390a3505050565b6112aa828260405180602001604052806000815250611810565b5050565b60008373ffffffffffffffffffffffffffffffffffffffff163b111561145f578273ffffffffffffffffffffffffffffffffffffffff1663150b7a026112f2610da0565b8685856040518563ffffffff1660e01b815260040161131494939291906125b7565b6020604051808303816000875af192505050801561135057506040513d601f19601f8201168201806040525081019061134d9190612618565b60015b6113d4573d8060008114611380576040519150601f19603f3d011682016040523d82523d6000602084013e611385565b606091505b5060008151036113cc57836040517f64a0ae920000000000000000000000000000000000000000000000000000000081526004016113c39190611d5e565b60405180910390fd5b805181602001fd5b63150b7a0260e01b7bffffffffffffffffffffffffffffffffffffffffffffffffffffffff1916817bffffffffffffffffffffffffffffffffffffffffffffffffffffffff19161461145d57836040517f64a0ae920000000000000000000000000000000000000000000000000000000081526004016114549190611d5e565b60405180910390fd5b505b50505050565b606060405180602001604052806000815250905090565b60606000600161148b8461182c565b01905060008167ffffffffffffffff8111156114aa576114a9611f05565b5b6040519080825280601f01601f1916602001820160405280156114dc5781602001600182028036833780820191505090505b509050600082602001820190505b60011561153f578080600190039150507f3031323334353637383961626364656600000000000000000000000000000000600a86061a8153600a858161153357611532612645565b5b049450600085036114ea575b819350505050919050565b60006002600083815260200190815260200160002060009054906101000a900473ffffffffffffffffffffffffffffffffffffffff169050919050565b80806115c05750600073ffffffffffffffffffffffffffffffffffffffff168273ffffffffffffffffffffffffffffffffffffffff1614155b156116f45760006115d084610cdb565b9050600073ffffffffffffffffffffffffffffffffffffffff168373ffffffffffffffffffffffffffffffffffffffff161415801561163b57508273ffffffffffffffffffffffffffffffffffffffff168173ffffffffffffffffffffffffffffffffffffffff1614155b801561164e575061164c8184610b57565b155b1561169057826040517fa9fbf51f0000000000000000000000000000000000000000000000000000000081526004016116879190611d5e565b60405180910390fd5b81156116f257838573ffffffffffffffffffffffffffffffffffffffff168273ffffffffffffffffffffffffffffffffffffffff167f8c5be1e5ebec7d5bd14f71427d1e84f3dd0314c0f7b2291e5b200ac8c7c3b92560405160405180910390a45b505b836004600085815260200190815260200160002060006101000a81548173ffffffffffffffffffffffffffffffffffffffff021916908373ffffffffffffffffffffffffffffffffffffffff16021790555050505050565b61175783838361197f565b61180b57600073ffffffffffffffffffffffffffffffffffffffff168373ffffffffffffffffffffffffffffffffffffffff16036117cc57806040517f7e2732890000000000000000000000000000000000000000000000000000000081526004016117c39190611e74565b60405180910390fd5b81816040517f177e802f000000000000000000000000000000000000000000000000000000008152600401611802929190612674565b60405180910390fd5b505050565b61181a8383611a40565b61182760008484846112ae565b505050565b600080600090507a184f03e93ff9f4daa797ed6e38ed64bf6a1f010000000000000000831061188a577a184f03e93ff9f4daa797ed6e38ed64bf6a1f01000000000000000083816118805761187f612645565b5b0492506040810190505b6d04ee2d6d415b85acef810000000083106118c7576d04ee2d6d415b85acef810000000083816118bd576118bc612645565b5b0492506020810190505b662386f26fc1000083106118f657662386f26fc1000083816118ec576118eb612645565b5b0492506010810190505b6305f5e100831061191f576305f5e100838161191557611914612645565b5b0492506008810190505b612710831061194457612710838161193a57611939612645565b5b0492506004810190505b60648310611967576064838161195d5761195c612645565b5b0492506002810190505b600a8310611976576001810190505b80915050919050565b60008073ffffffffffffffffffffffffffffffffffffffff168373ffffffffffffffffffffffffffffffffffffffff1614158015611a3757508273ffffffffffffffffffffffffffffffffffffffff168473ffffffffffffffffffffffffffffffffffffffff1614806119f857506119f78484610b57565b5b80611a3657508273ffffffffffffffffffffffffffffffffffffffff16611a1e83610d63565b73ffffffffffffffffffffffffffffffffffffffff16145b5b90509392505050565b600073ffffffffffffffffffffffffffffffffffffffff168273ffffffffffffffffffffffffffffffffffffffff1603611ab25760006040517f64a0ae92000000000000000000000000000000000000000000000000000000008152600401611aa99190611d5e565b60405180910390fd5b6000611ac083836000610dba565b9050600073ffffffffffffffffffffffffffffffffffffffff168173ffffffffffffffffffffffffffffffffffffffff1614611b345760006040517f73c6ac6e000000000000000000000000000000000000000000000000000000008152600401611b2b9190611d5e565b60405180910390fd5b505050565b6000604051905090565b600080fd5b600080fd5b60007fffffffff0000000000000000000000000000000000000000000000000000000082169050919050565b611b8281611b4d565b8114611b8d57600080fd5b50565b600081359050611b9f81611b79565b92915050565b600060208284031215611bbb57611bba611b43565b5b6000611bc984828501611b90565b91505092915050565b60008115159050919050565b611be781611bd2565b82525050565b6000602082019050611c026000830184611bde565b92915050565b600081519050919050565b600082825260208201905092915050565b60005b83811015611c42578082015181840152602081019050611c27565b60008484015250505050565b6000601f19601f8301169050919050565b6000611c6a82611c08565b611c748185611c13565b9350611c84818560208601611c24565b611c8d81611c4e565b840191505092915050565b60006020820190508181036000830152611cb28184611c5f565b905092915050565b6000819050919050565b611ccd81611cba565b8114611cd857600080fd5b50565b600081359050611cea81611cc4565b92915050565b600060208284031215611d0657611d05611b43565b5b6000611d1484828501611cdb565b91505092915050565b600073ffffffffffffffffffffffffffffffffffffffff82169050919050565b6000611d4882611d1d565b9050919050565b611d5881611d3d565b82525050565b6000602082019050611d736000830184611d4f565b92915050565b611d8281611d3d565b8114611d8d57600080fd5b50565b600081359050611d9f81611d79565b92915050565b60008060408385031215611dbc57611dbb611b43565b5b6000611dca85828601611d90565b9250506020611ddb85828601611cdb565b9150509250929050565b600080600060608486031215611dfe57611dfd611b43565b5b6000611e0c86828701611d90565b9350506020611e1d86828701611d90565b9250506040611e2e86828701611cdb565b9150509250925092565b600060208284031215611e4e57611e4d611b43565b5b6000611e5c84828501611d90565b91505092915050565b611e6e81611cba565b82525050565b6000602082019050611e896000830184611e65565b92915050565b611e9881611bd2565b8114611ea357600080fd5b50565b600081359050611eb581611e8f565b92915050565b60008060408385031215611ed257611ed1611b43565b5b6000611ee085828601611d90565b9250506020611ef185828601611ea6565b9150509250929050565b600080fd5b600080fd5b7f4e487b7100000000000000000000000000000000000000000000000000000000600052604160045260246000fd5b611f3d82611c4e565b810181811067ffffffffffffffff82111715611f5c57611f5b611f05565b5b80604052505050565b6000611f6f611b39565b9050611f7b8282611f34565b919050565b600067ffffffffffffffff821115611f9b57611f9a611f05565b5b611fa482611c4e565b9050602081019050919050565b82818337600083830152505050565b6000611fd3611fce84611f80565b611f65565b905082815260208101848484011115611fef57611fee611f00565b5b611ffa848285611fb1565b509392505050565b600082601f83011261201757612016611efb565b5b8135612027848260208601611fc0565b91505092915050565b60008060006060848603121561204957612048611b43565b5b600061205786828701611d90565b935050602084013567ffffffffffffffff81111561207857612077611b48565b5b61208486828701612002565b925050604084013567ffffffffffffffff8111156120a5576120a4611b48565b5b6120b186828701612002565b9150509250925092565b600067ffffffffffffffff8211156120d6576120d5611f05565b5b6120df82611c4e565b9050602081019050919050565b60006120ff6120fa846120bb565b611f65565b90508281526020810184848401111561211b5761211a611f00565b5b612126848285611fb1565b509392505050565b600082601f83011261214357612142611efb565b5b81356121538482602086016120ec565b91505092915050565b6000806000806080858703121561217657612175611b43565b5b600061218487828801611d90565b945050602061219587828801611d90565b93505060406121a687828801611cdb565b925050606085013567ffffffffffffffff8111156121c7576121c6611b48565b5b6121d38782880161212e565b91505092959194509250565b600080604083850312156121f6576121f5611b43565b5b600061220485828601611d90565b925050602061221585828601611d90565b9150509250929050565b7f4e487b7100000000000000000000000000000000000000000000000000000000600052602260045260246000fd5b6000600282049050600182168061226657607f821691505b6020821081036122795761227861221f565b5b50919050565b60006060820190506122946000830186611d4f565b6122a16020830185611e65565b6122ae6040830184611d4f565b949350505050565b7f526563656976657220616464726573732063616e6e6f74206265207a65726f2060008201527f6164647265737300000000000000000000000000000000000000000000000000602082015250565b6000612312602783611c13565b915061231d826122b6565b604082019050919050565b6000602082019050818103600083015261234181612305565b9050919050565b7f43616e6e6f742073656e6420457468657220746f2074686520636f6e7472616360008201527f74206f776e657200000000000000000000000000000000000000000000000000602082015250565b60006123a4602783611c13565b91506123af82612348565b604082019050919050565b600060208201905081810360008301526123d381612397565b9050919050565b7f416d6f756e74206d7573742062652067726561746572207468616e207a65726f600082015250565b6000612410602083611c13565b915061241b826123da565b602082019050919050565b6000602082019050818103600083015261243f81612403565b9050919050565b600060608201905061245b6000830186611e65565b818103602083015261246d8185611c5f565b905081810360408301526124818184611c5f565b9050949350505050565b7f4e487b7100000000000000000000000000000000000000000000000000000000600052601160045260246000fd5b60006124c582611cba565b91507fffffffffffffffffffffffffffffffffffffffffffffffffffffffffffffffff82036124f7576124f661248b565b5b600182019050919050565b600081905092915050565b600061251882611c08565b6125228185612502565b9350612532818560208601611c24565b80840191505092915050565b600061254a828561250d565b9150612556828461250d565b91508190509392505050565b600081519050919050565b600082825260208201905092915050565b600061258982612562565b612593818561256d565b93506125a3818560208601611c24565b6125ac81611c4e565b840191505092915050565b60006080820190506125cc6000830187611d4f565b6125d96020830186611d4f565b6125e66040830185611e65565b81810360608301526125f8818461257e565b905095945050505050565b60008151905061261281611b79565b92915050565b60006020828403121561262e5761262d611b43565b5b600061263c84828501612603565b91505092915050565b7f4e487b7100000000000000000000000000000000000000000000000000000000600052601260045260246000fd5b60006040820190506126896000830185611d4f565b6126966020830184611e65565b939250505056fea26469706673582212208b22a60669cd5e68fe263bbd6c95ef1ff8c19807400b7a9069bdbba0458aacb664736f6c63430008140033",
  "linkReferences": {},
  "deployedLinkReferences": {}
}